{
  "contractName": "Nippleverse",
  "abi": [
    {
      "inputs": [
        {
          "internalType": "string",
          "name": "baseURI",
          "type": "string"
        }
      ],
      "stateMutability": "nonpayable",
      "type": "constructor"
    },
    {
      "anonymous": false,
      "inputs": [
        {
          "indexed": true,
          "internalType": "address",
          "name": "owner",
          "type": "address"
        },
        {
          "indexed": true,
          "internalType": "address",
          "name": "approved",
          "type": "address"
        },
        {
          "indexed": true,
          "internalType": "uint256",
          "name": "tokenId",
          "type": "uint256"
        }
      ],
      "name": "Approval",
      "type": "event"
    },
    {
      "anonymous": false,
      "inputs": [
        {
          "indexed": true,
          "internalType": "address",
          "name": "owner",
          "type": "address"
        },
        {
          "indexed": true,
          "internalType": "address",
          "name": "operator",
          "type": "address"
        },
        {
          "indexed": false,
          "internalType": "bool",
          "name": "approved",
          "type": "bool"
        }
      ],
      "name": "ApprovalForAll",
      "type": "event"
    },
    {
      "anonymous": false,
      "inputs": [
        {
          "indexed": false,
          "internalType": "address",
          "name": "to",
          "type": "address"
        },
        {
          "indexed": true,
          "internalType": "uint256",
          "name": "id",
          "type": "uint256"
        }
      ],
      "name": "NippleverseCreated",
      "type": "event"
    },
    {
      "anonymous": false,
      "inputs": [
        {
          "indexed": true,
          "internalType": "address",
          "name": "previousOwner",
          "type": "address"
        },
        {
          "indexed": true,
          "internalType": "address",
          "name": "newOwner",
          "type": "address"
        }
      ],
      "name": "OwnershipTransferred",
      "type": "event"
    },
    {
      "anonymous": false,
      "inputs": [
        {
          "indexed": false,
          "internalType": "address",
          "name": "account",
          "type": "address"
        }
      ],
      "name": "Paused",
      "type": "event"
    },
    {
      "anonymous": false,
      "inputs": [
        {
          "indexed": true,
          "internalType": "address",
          "name": "from",
          "type": "address"
        },
        {
          "indexed": true,
          "internalType": "address",
          "name": "to",
          "type": "address"
        },
        {
          "indexed": true,
          "internalType": "uint256",
          "name": "tokenId",
          "type": "uint256"
        }
      ],
      "name": "Transfer",
      "type": "event"
    },
    {
      "anonymous": false,
      "inputs": [
        {
          "indexed": false,
          "internalType": "address",
          "name": "account",
          "type": "address"
        }
      ],
      "name": "Unpaused",
      "type": "event"
    },
    {
      "inputs": [],
      "name": "SALE_OPEN",
      "outputs": [
        {
          "internalType": "bool",
          "name": "",
          "type": "bool"
        }
      ],
      "stateMutability": "view",
      "type": "function"
    },
    {
      "inputs": [
        {
          "internalType": "address",
          "name": "",
          "type": "address"
        }
      ],
      "name": "_whitelist",
      "outputs": [
        {
          "internalType": "bool",
          "name": "",
          "type": "bool"
        }
      ],
      "stateMutability": "view",
      "type": "function"
    },
    {
      "inputs": [
        {
          "internalType": "address",
          "name": "to",
          "type": "address"
        },
        {
          "internalType": "uint256",
          "name": "tokenId",
          "type": "uint256"
        }
      ],
      "name": "approve",
      "outputs": [],
      "stateMutability": "nonpayable",
      "type": "function"
    },
    {
      "inputs": [
        {
          "internalType": "address",
          "name": "owner",
          "type": "address"
        }
      ],
      "name": "balanceOf",
      "outputs": [
        {
          "internalType": "uint256",
          "name": "",
          "type": "uint256"
        }
      ],
      "stateMutability": "view",
      "type": "function"
    },
    {
      "inputs": [
        {
          "internalType": "uint256",
          "name": "tokenId",
          "type": "uint256"
        }
      ],
      "name": "burn",
      "outputs": [],
      "stateMutability": "nonpayable",
      "type": "function"
    },
    {
      "inputs": [
        {
          "internalType": "uint256",
          "name": "tokenId",
          "type": "uint256"
        }
      ],
      "name": "getApproved",
      "outputs": [
        {
          "internalType": "address",
          "name": "",
          "type": "address"
        }
      ],
      "stateMutability": "view",
      "type": "function"
    },
    {
      "inputs": [
        {
          "internalType": "address",
          "name": "owner",
          "type": "address"
        },
        {
          "internalType": "address",
          "name": "operator",
          "type": "address"
        }
      ],
      "name": "isApprovedForAll",
      "outputs": [
        {
          "internalType": "bool",
          "name": "",
          "type": "bool"
        }
      ],
      "stateMutability": "view",
      "type": "function"
    },
    {
      "inputs": [],
      "name": "name",
      "outputs": [
        {
          "internalType": "string",
          "name": "",
          "type": "string"
        }
      ],
      "stateMutability": "view",
      "type": "function"
    },
    {
      "inputs": [],
      "name": "owner",
      "outputs": [
        {
          "internalType": "address",
          "name": "",
          "type": "address"
        }
      ],
      "stateMutability": "view",
      "type": "function"
    },
    {
      "inputs": [
        {
          "internalType": "uint256",
          "name": "tokenId",
          "type": "uint256"
        }
      ],
      "name": "ownerOf",
      "outputs": [
        {
          "internalType": "address",
          "name": "",
          "type": "address"
        }
      ],
      "stateMutability": "view",
      "type": "function"
    },
    {
      "inputs": [],
      "name": "paused",
      "outputs": [
        {
          "internalType": "bool",
          "name": "",
          "type": "bool"
        }
      ],
      "stateMutability": "view",
      "type": "function"
    },
    {
      "inputs": [],
      "name": "renounceOwnership",
      "outputs": [],
      "stateMutability": "nonpayable",
      "type": "function"
    },
    {
      "inputs": [
        {
          "internalType": "address",
          "name": "from",
          "type": "address"
        },
        {
          "internalType": "address",
          "name": "to",
          "type": "address"
        },
        {
          "internalType": "uint256",
          "name": "tokenId",
          "type": "uint256"
        }
      ],
      "name": "safeTransferFrom",
      "outputs": [],
      "stateMutability": "nonpayable",
      "type": "function"
    },
    {
      "inputs": [
        {
          "internalType": "address",
          "name": "from",
          "type": "address"
        },
        {
          "internalType": "address",
          "name": "to",
          "type": "address"
        },
        {
          "internalType": "uint256",
          "name": "tokenId",
          "type": "uint256"
        },
        {
          "internalType": "bytes",
          "name": "_data",
          "type": "bytes"
        }
      ],
      "name": "safeTransferFrom",
      "outputs": [],
      "stateMutability": "nonpayable",
      "type": "function"
    },
    {
      "inputs": [
        {
          "internalType": "address",
          "name": "operator",
          "type": "address"
        },
        {
          "internalType": "bool",
          "name": "approved",
          "type": "bool"
        }
      ],
      "name": "setApprovalForAll",
      "outputs": [],
      "stateMutability": "nonpayable",
      "type": "function"
    },
    {
      "inputs": [],
      "name": "symbol",
      "outputs": [
        {
          "internalType": "string",
          "name": "",
          "type": "string"
        }
      ],
      "stateMutability": "view",
      "type": "function"
    },
    {
      "inputs": [
        {
          "internalType": "uint256",
          "name": "index",
          "type": "uint256"
        }
      ],
      "name": "tokenByIndex",
      "outputs": [
        {
          "internalType": "uint256",
          "name": "",
          "type": "uint256"
        }
      ],
      "stateMutability": "view",
      "type": "function"
    },
    {
      "inputs": [
        {
          "internalType": "address",
          "name": "owner",
          "type": "address"
        },
        {
          "internalType": "uint256",
          "name": "index",
          "type": "uint256"
        }
      ],
      "name": "tokenOfOwnerByIndex",
      "outputs": [
        {
          "internalType": "uint256",
          "name": "",
          "type": "uint256"
        }
      ],
      "stateMutability": "view",
      "type": "function"
    },
    {
      "inputs": [
        {
          "internalType": "uint256",
          "name": "tokenId",
          "type": "uint256"
        }
      ],
      "name": "tokenURI",
      "outputs": [
        {
          "internalType": "string",
          "name": "",
          "type": "string"
        }
      ],
      "stateMutability": "view",
      "type": "function"
    },
    {
      "inputs": [],
      "name": "totalSupply",
      "outputs": [
        {
          "internalType": "uint256",
          "name": "",
          "type": "uint256"
        }
      ],
      "stateMutability": "view",
      "type": "function"
    },
    {
      "inputs": [
        {
          "internalType": "address",
          "name": "from",
          "type": "address"
        },
        {
          "internalType": "address",
          "name": "to",
          "type": "address"
        },
        {
          "internalType": "uint256",
          "name": "tokenId",
          "type": "uint256"
        }
      ],
      "name": "transferFrom",
      "outputs": [],
      "stateMutability": "nonpayable",
      "type": "function"
    },
    {
      "inputs": [
        {
          "internalType": "address",
          "name": "newOwner",
          "type": "address"
        }
      ],
      "name": "transferOwnership",
      "outputs": [],
      "stateMutability": "nonpayable",
      "type": "function"
    },
    {
      "inputs": [
        {
          "internalType": "address payable",
          "name": "_to",
          "type": "address"
        },
        {
          "internalType": "uint256[]",
          "name": "_ids",
          "type": "uint256[]"
        }
      ],
      "name": "mint",
      "outputs": [],
      "stateMutability": "payable",
      "type": "function"
    },
    {
      "inputs": [],
      "name": "startPreSale",
      "outputs": [],
      "stateMutability": "nonpayable",
      "type": "function"
    },
    {
      "inputs": [],
      "name": "startPublicSale",
      "outputs": [],
      "stateMutability": "nonpayable",
      "type": "function"
    },
    {
      "inputs": [],
      "name": "flipSaleState",
      "outputs": [],
      "stateMutability": "nonpayable",
      "type": "function"
    },
    {
      "inputs": [
        {
          "internalType": "address",
          "name": "attender",
          "type": "address"
        }
      ],
      "name": "addToWhitelist",
      "outputs": [],
      "stateMutability": "nonpayable",
      "type": "function"
    },
    {
      "inputs": [
        {
          "internalType": "address",
          "name": "attender",
          "type": "address"
        }
      ],
      "name": "removeFromWhitelist",
      "outputs": [],
      "stateMutability": "nonpayable",
      "type": "function"
    },
    {
      "inputs": [
        {
          "internalType": "string",
          "name": "baseURI",
          "type": "string"
        }
      ],
      "name": "setBaseURI",
      "outputs": [],
      "stateMutability": "nonpayable",
      "type": "function"
    },
    {
      "inputs": [
        {
          "internalType": "uint256",
          "name": "_count",
          "type": "uint256"
        }
      ],
      "name": "price",
      "outputs": [
        {
          "internalType": "uint256",
          "name": "",
          "type": "uint256"
        }
      ],
      "stateMutability": "view",
      "type": "function"
    },
    {
      "inputs": [],
      "name": "occupiedList",
      "outputs": [
        {
          "internalType": "uint256[]",
          "name": "",
          "type": "uint256[]"
        }
      ],
      "stateMutability": "view",
      "type": "function"
    },
    {
      "inputs": [],
      "name": "maxMint",
      "outputs": [
        {
          "internalType": "uint256",
          "name": "",
          "type": "uint256"
        }
      ],
      "stateMutability": "view",
      "type": "function"
    },
    {
      "inputs": [],
      "name": "maxSales",
      "outputs": [
        {
          "internalType": "uint256",
          "name": "",
          "type": "uint256"
        }
      ],
      "stateMutability": "view",
      "type": "function"
    },
    {
      "inputs": [],
      "name": "maxSupply",
      "outputs": [
        {
          "internalType": "uint256",
          "name": "",
          "type": "uint256"
        }
      ],
      "stateMutability": "pure",
      "type": "function"
    },
    {
      "inputs": [],
      "name": "raised",
      "outputs": [
        {
          "internalType": "uint256",
          "name": "",
          "type": "uint256"
        }
      ],
      "stateMutability": "view",
      "type": "function"
    },
    {
      "inputs": [
        {
          "internalType": "address",
          "name": "_owner",
          "type": "address"
        }
      ],
      "name": "getTokenIdsOfWallet",
      "outputs": [
        {
          "internalType": "uint256[]",
          "name": "",
          "type": "uint256[]"
        }
      ],
      "stateMutability": "view",
      "type": "function"
    },
    {
      "inputs": [],
      "name": "withdrawAll",
      "outputs": [],
      "stateMutability": "payable",
      "type": "function"
    },
    {
      "inputs": [
        {
          "internalType": "bytes4",
          "name": "interfaceId",
          "type": "bytes4"
        }
      ],
      "name": "supportsInterface",
      "outputs": [
        {
          "internalType": "bool",
          "name": "",
          "type": "bool"
        }
      ],
      "stateMutability": "view",
      "type": "function"
    }
  ],
  "bytecode": "0x60806040526000600c60006101000a81548160ff0219169083151502179055503480156200002c57600080fd5b50604051620059a3380380620059a383398181016040528101906200005291906200042e565b6040518060400160405280600b81526020017f4e6970706c6576657273650000000000000000000000000000000000000000008152506040518060400160405280600381526020017f4e495000000000000000000000000000000000000000000000000000000000008152508160009080519060200190620000d692919062000300565b508060019080519060200190620000ef92919062000300565b50505062000112620001066200015d60201b60201c565b6200016560201b60201c565b6000600a60146101000a81548160ff0219169083151502179055506200013e816200022b60201b60201c565b6000600d81905550601e600e81905550601c600f819055505062000686565b600033905090565b6000600a60009054906101000a900473ffffffffffffffffffffffffffffffffffffffff16905081600a60006101000a81548173ffffffffffffffffffffffffffffffffffffffff021916908373ffffffffffffffffffffffffffffffffffffffff1602179055508173ffffffffffffffffffffffffffffffffffffffff168173ffffffffffffffffffffffffffffffffffffffff167f8be0079c531659141344cd1fd0a4f28419497f9722a3daafe3b4186f6b6457e060405160405180910390a35050565b6200023b6200015d60201b60201c565b73ffffffffffffffffffffffffffffffffffffffff1662000261620002d660201b60201c565b73ffffffffffffffffffffffffffffffffffffffff1614620002ba576040517f08c379a0000000000000000000000000000000000000000000000000000000008152600401620002b190620004a6565b60405180910390fd5b8060149080519060200190620002d292919062000300565b5050565b6000600a60009054906101000a900473ffffffffffffffffffffffffffffffffffffffff16905090565b8280546200030e906200056e565b90600052602060002090601f0160209004810192826200033257600085556200037e565b82601f106200034d57805160ff19168380011785556200037e565b828001600101855582156200037e579182015b828111156200037d57825182559160200191906001019062000360565b5b5090506200038d919062000391565b5090565b5b80821115620003ac57600081600090555060010162000392565b5090565b6000620003c7620003c184620004f1565b620004c8565b905082815260208101848484011115620003e657620003e56200063d565b5b620003f384828562000538565b509392505050565b600082601f83011262000413576200041262000638565b5b815162000425848260208601620003b0565b91505092915050565b60006020828403121562000447576200044662000647565b5b600082015167ffffffffffffffff81111562000468576200046762000642565b5b6200047684828501620003fb565b91505092915050565b60006200048e60208362000527565b91506200049b826200065d565b602082019050919050565b60006020820190508181036000830152620004c1816200047f565b9050919050565b6000620004d4620004e7565b9050620004e28282620005a4565b919050565b6000604051905090565b600067ffffffffffffffff8211156200050f576200050e62000609565b5b6200051a826200064c565b9050602081019050919050565b600082825260208201905092915050565b60005b83811015620005585780820151818401526020810190506200053b565b8381111562000568576000848401525b50505050565b600060028204905060018216806200058757607f821691505b602082108114156200059e576200059d620005da565b5b50919050565b620005af826200064c565b810181811067ffffffffffffffff82111715620005d157620005d062000609565b5b80604052505050565b7f4e487b7100000000000000000000000000000000000000000000000000000000600052602260045260246000fd5b7f4e487b7100000000000000000000000000000000000000000000000000000000600052604160045260246000fd5b600080fd5b600080fd5b600080fd5b600080fd5b6000601f19601f8301169050919050565b7f4f776e61626c653a2063616c6c6572206973206e6f7420746865206f776e6572600082015250565b61530d80620006966000396000f3fe6080604052600436106102255760003560e01c80637501f74111610123578063bfdf9b6e116100ab578063e43252d71161006f578063e43252d7146107c7578063e985e9c5146107f0578063eef625081461082d578063f0ea4bfc1461086a578063f2fde38b1461089557610225565b8063bfdf9b6e146106db578063c87b56dd14610706578063cfdb63ac14610743578063d5abeb0114610780578063de836ebd146107ab57610225565b80638e26d2aa116100f25780638e26d2aa1461060857806395d89b4114610633578063a22cb4651461065e578063a769cba914610687578063b88d4fde146106b257610225565b80637501f7411461057f578063853828b6146105aa5780638ab1d681146105b45780638da5cb5b146105dd57610225565b806334918dfd116101b157806355f804b31161017557806355f804b31461049a5780635c975abb146104c35780636352211e146104ee57806370a082311461052b578063715018a61461056857610225565b806334918dfd146103dd57806342842e0e146103f457806342966c681461041d5780634f6ccce71461044657806355dd574c1461048357610225565b80630c1c972a116101f85780630c1c972a146102f857806318160ddd1461030f57806323b872dd1461033a57806326a49e37146103635780632f745c59146103a057610225565b806301ffc9a71461022a57806306fdde0314610267578063081812fc14610292578063095ea7b3146102cf575b600080fd5b34801561023657600080fd5b50610251600480360381019061024c91906138e9565b6108be565b60405161025e919061405a565b60405180910390f35b34801561027357600080fd5b5061027c6108d0565b6040516102899190614075565b60405180910390f35b34801561029e57600080fd5b506102b960048036038101906102b4919061398c565b610962565b6040516102c69190613fb6565b60405180910390f35b3480156102db57600080fd5b506102f660048036038101906102f191906138a9565b6109e7565b005b34801561030457600080fd5b5061030d610aff565b005b34801561031b57600080fd5b50610324610bd2565b6040516103319190614477565b60405180910390f35b34801561034657600080fd5b50610361600480360381019061035c9190613793565b610bdf565b005b34801561036f57600080fd5b5061038a6004803603810190610385919061398c565b610c3f565b6040516103979190614477565b60405180910390f35b3480156103ac57600080fd5b506103c760048036038101906103c291906138a9565b610c5d565b6040516103d49190614477565b60405180910390f35b3480156103e957600080fd5b506103f2610d02565b005b34801561040057600080fd5b5061041b60048036038101906104169190613793565b610daa565b005b34801561042957600080fd5b50610444600480360381019061043f919061398c565b610dca565b005b34801561045257600080fd5b5061046d6004803603810190610468919061398c565b610e26565b60405161047a9190614477565b60405180910390f35b34801561048f57600080fd5b50610498610e97565b005b3480156104a657600080fd5b506104c160048036038101906104bc9190613943565b610f76565b005b3480156104cf57600080fd5b506104d861100c565b6040516104e5919061405a565b60405180910390f35b3480156104fa57600080fd5b506105156004803603810190610510919061398c565b611023565b6040516105229190613fb6565b60405180910390f35b34801561053757600080fd5b50610552600480360381019061054d91906136ca565b6110d5565b60405161055f9190614477565b60405180910390f35b34801561057457600080fd5b5061057d61118d565b005b34801561058b57600080fd5b50610594611215565b6040516105a19190614477565b60405180910390f35b6105b261121f565b005b3480156105c057600080fd5b506105db60048036038101906105d691906136ca565b6112f7565b005b3480156105e957600080fd5b506105f26113ce565b6040516105ff9190613fb6565b60405180910390f35b34801561061457600080fd5b5061061d6113f8565b60405161062a919061405a565b60405180910390f35b34801561063f57600080fd5b5061064861140b565b6040516106559190614075565b60405180910390f35b34801561066a57600080fd5b5061068560048036038101906106809190613869565b61149d565b005b34801561069357600080fd5b5061069c6114b3565b6040516106a99190614038565b60405180910390f35b3480156106be57600080fd5b506106d960048036038101906106d491906137e6565b61150b565b005b3480156106e757600080fd5b506106f061156d565b6040516106fd9190614477565b60405180910390f35b34801561071257600080fd5b5061072d6004803603810190610728919061398c565b611577565b60405161073a9190614075565b60405180910390f35b34801561074f57600080fd5b5061076a600480360381019061076591906136ca565b61161e565b604051610777919061405a565b60405180910390f35b34801561078c57600080fd5b5061079561163e565b6040516107a29190614477565b60405180910390f35b6107c560048036038101906107c091906136f7565b611648565b005b3480156107d357600080fd5b506107ee60048036038101906107e991906136ca565b611abf565b005b3480156107fc57600080fd5b5061081760048036038101906108129190613753565b611b96565b604051610824919061405a565b60405180910390f35b34801561083957600080fd5b50610854600480360381019061084f91906136ca565b611c2a565b6040516108619190614038565b60405180910390f35b34801561087657600080fd5b5061087f611cd8565b60405161088c9190614477565b60405180910390f35b3480156108a157600080fd5b506108bc60048036038101906108b791906136ca565b611ce0565b005b60006108c982611dd8565b9050919050565b6060600080546108df906147df565b80601f016020809104026020016040519081016040528092919081815260200182805461090b906147df565b80156109585780601f1061092d57610100808354040283529160200191610958565b820191906000526020600020905b81548152906001019060200180831161093b57829003601f168201915b5050505050905090565b600061096d82611e52565b6109ac576040517f08c379a00000000000000000000000000000000000000000000000000000000081526004016109a390614317565b60405180910390fd5b6004600083815260200190815260200160002060009054906101000a900473ffffffffffffffffffffffffffffffffffffffff169050919050565b60006109f282611023565b90508073ffffffffffffffffffffffffffffffffffffffff168373ffffffffffffffffffffffffffffffffffffffff161415610a63576040517f08c379a0000000000000000000000000000000000000000000000000000000008152600401610a5a906143b7565b60405180910390fd5b8073ffffffffffffffffffffffffffffffffffffffff16610a82611ebe565b73ffffffffffffffffffffffffffffffffffffffff161480610ab15750610ab081610aab611ebe565b611b96565b5b610af0576040517f08c379a0000000000000000000000000000000000000000000000000000000008152600401610ae790614277565b60405180910390fd5b610afa8383611ec6565b505050565b610b07611ebe565b73ffffffffffffffffffffffffffffffffffffffff16610b256113ce565b73ffffffffffffffffffffffffffffffffffffffff1614610b7b576040517f08c379a0000000000000000000000000000000000000000000000000000000008152600401610b7290614337565b60405180910390fd5b6000601360006101000a81548160ff0219169083151502179055506001600c60006101000a81548160ff02191690831515021790555066f5232269808000600d81905550610d05600e819055506014600f81905550565b6000600880549050905090565b610bf0610bea611ebe565b82611f7f565b610c2f576040517f08c379a0000000000000000000000000000000000000000000000000000000008152600401610c26906143f7565b60405180910390fd5b610c3a83838361205d565b505050565b6000610c5682600d546122c490919063ffffffff16565b9050919050565b6000610c68836110d5565b8210610ca9576040517f08c379a0000000000000000000000000000000000000000000000000000000008152600401610ca0906140d7565b60405180910390fd5b600660008473ffffffffffffffffffffffffffffffffffffffff1673ffffffffffffffffffffffffffffffffffffffff168152602001908152602001600020600083815260200190815260200160002054905092915050565b610d0a611ebe565b73ffffffffffffffffffffffffffffffffffffffff16610d286113ce565b73ffffffffffffffffffffffffffffffffffffffff1614610d7e576040517f08c379a0000000000000000000000000000000000000000000000000000000008152600401610d7590614337565b60405180910390fd5b600c60009054906101000a900460ff1615600c60006101000a81548160ff021916908315150217905550565b610dc58383836040518060200160405280600081525061150b565b505050565b610ddb610dd5611ebe565b82611f7f565b610e1a576040517f08c379a0000000000000000000000000000000000000000000000000000000008152600401610e1190614437565b60405180910390fd5b610e23816122da565b50565b6000610e30610bd2565b8210610e71576040517f08c379a0000000000000000000000000000000000000000000000000000000008152600401610e6890614417565b60405180910390fd5b60088281548110610e8557610e84614978565b5b90600052602060002001549050919050565b610e9f611ebe565b73ffffffffffffffffffffffffffffffffffffffff16610ebd6113ce565b73ffffffffffffffffffffffffffffffffffffffff1614610f13576040517f08c379a0000000000000000000000000000000000000000000000000000000008152600401610f0a90614337565b60405180910390fd5b6001601360006101000a81548160ff0219169083151502179055506001600c60006101000a81548160ff02191690831515021790555066b1a2bc2ec50000600d81905550601e61014d610f6691906145cc565b600e819055506005600f81905550565b610f7e611ebe565b73ffffffffffffffffffffffffffffffffffffffff16610f9c6113ce565b73ffffffffffffffffffffffffffffffffffffffff1614610ff2576040517f08c379a0000000000000000000000000000000000000000000000000000000008152600401610fe990614337565b60405180910390fd5b806014908051906020019061100892919061342b565b5050565b6000600a60149054906101000a900460ff16905090565b6000806002600084815260200190815260200160002060009054906101000a900473ffffffffffffffffffffffffffffffffffffffff169050600073ffffffffffffffffffffffffffffffffffffffff168173ffffffffffffffffffffffffffffffffffffffff1614156110cc576040517f08c379a00000000000000000000000000000000000000000000000000000000081526004016110c3906142b7565b60405180910390fd5b80915050919050565b60008073ffffffffffffffffffffffffffffffffffffffff168273ffffffffffffffffffffffffffffffffffffffff161415611146576040517f08c379a000000000000000000000000000000000000000000000000000000000815260040161113d90614297565b60405180910390fd5b600360008373ffffffffffffffffffffffffffffffffffffffff1673ffffffffffffffffffffffffffffffffffffffff168152602001908152602001600020549050919050565b611195611ebe565b73ffffffffffffffffffffffffffffffffffffffff166111b36113ce565b73ffffffffffffffffffffffffffffffffffffffff1614611209576040517f08c379a000000000000000000000000000000000000000000000000000000000815260040161120090614337565b60405180910390fd5b61121360006123f7565b565b6000600f54905090565b611227611ebe565b73ffffffffffffffffffffffffffffffffffffffff166112456113ce565b73ffffffffffffffffffffffffffffffffffffffff161461129b576040517f08c379a000000000000000000000000000000000000000000000000000000000815260040161129290614337565b60405180910390fd5b6000479050600081116112e3576040517f08c379a00000000000000000000000000000000000000000000000000000000081526004016112da90614397565b60405180910390fd5b6112f46112ee6113ce565b476124bd565b50565b6112ff611ebe565b73ffffffffffffffffffffffffffffffffffffffff1661131d6113ce565b73ffffffffffffffffffffffffffffffffffffffff1614611373576040517f08c379a000000000000000000000000000000000000000000000000000000000815260040161136a90614337565b60405180910390fd5b6000601260008373ffffffffffffffffffffffffffffffffffffffff1673ffffffffffffffffffffffffffffffffffffffff16815260200190815260200160002060006101000a81548160ff02191690831515021790555050565b6000600a60009054906101000a900473ffffffffffffffffffffffffffffffffffffffff16905090565b600c60009054906101000a900460ff1681565b60606001805461141a906147df565b80601f0160208091040260200160405190810160405280929190818152602001828054611446906147df565b80156114935780601f1061146857610100808354040283529160200191611493565b820191906000526020600020905b81548152906001019060200180831161147657829003601f168201915b5050505050905090565b6114af6114a8611ebe565b838361256e565b5050565b6060601180548060200260200160405190810160405280929190818152602001828054801561150157602002820191906000526020600020905b8154815260200190600101908083116114ed575b5050505050905090565b61151c611516611ebe565b83611f7f565b61155b576040517f08c379a0000000000000000000000000000000000000000000000000000000008152600401611552906143f7565b60405180910390fd5b611567848484846126db565b50505050565b6000600e54905090565b606061158282611e52565b6115c1576040517f08c379a00000000000000000000000000000000000000000000000000000000081526004016115b890614357565b60405180910390fd5b60006115cb612737565b905060008151116115eb5760405180602001604052806000815250611616565b806115f5846127c9565b604051602001611606929190613f7d565b6040516020818303038152906040525b915050919050565b60126020528060005260406000206000915054906101000a900460ff1681565b6000610d05905090565b6116506113ce565b73ffffffffffffffffffffffffffffffffffffffff1661166e611ebe565b73ffffffffffffffffffffffffffffffffffffffff16146116e05760011515600c60009054906101000a900460ff161515146116df576040517f08c379a00000000000000000000000000000000000000000000000000000000081526004016116d6906141f7565b60405180910390fd5b5b610d056116eb61292a565b111561172c576040517f08c379a000000000000000000000000000000000000000000000000000000000815260040161172390614457565b60405180910390fd5b6117346113ce565b73ffffffffffffffffffffffffffffffffffffffff16611752611ebe565b73ffffffffffffffffffffffffffffffffffffffff16146117b65761177561100c565b156117b5576040517f08c379a00000000000000000000000000000000000000000000000000000000081526004016117ac90614117565b60405180910390fd5b5b60006117c061292a565b905060011515601360009054906101000a900460ff16151514156118725760011515601260008573ffffffffffffffffffffffffffffffffffffffff1673ffffffffffffffffffffffffffffffffffffffff16815260200190815260200160002060009054906101000a900460ff16151514611871576040517f08c379a0000000000000000000000000000000000000000000000000000000008152600401611868906140b7565b60405180910390fd5b5b600e5482518261188291906145cc565b11156118c3576040517f08c379a00000000000000000000000000000000000000000000000000000000081526004016118ba90614137565b60405180910390fd5b600e54811115611908576040517f08c379a00000000000000000000000000000000000000000000000000000000081526004016118ff90614197565b60405180910390fd5b600f548251111561194e576040517f08c379a0000000000000000000000000000000000000000000000000000000008152600401611945906143d7565b60405180910390fd5b6119566113ce565b73ffffffffffffffffffffffffffffffffffffffff168373ffffffffffffffffffffffffffffffffffffffff16146119d5576119928251610c3f565b3410156119d4576040517f08c379a00000000000000000000000000000000000000000000000000000000081526004016119cb906142d7565b60405180910390fd5b5b60005b8251811015611a755760001515601060008584815181106119fc576119fb614978565b5b6020026020010151815260200190815260200160002060009054906101000a900460ff16151514611a62576040517f08c379a0000000000000000000000000000000000000000000000000000000008152600401611a5990614377565b60405180910390fd5b8080611a6d90614842565b9150506119d8565b5060005b8251811015611ab957611aa684848381518110611a9957611a98614978565b5b602002602001015161293b565b8080611ab190614842565b915050611a79565b50505050565b611ac7611ebe565b73ffffffffffffffffffffffffffffffffffffffff16611ae56113ce565b73ffffffffffffffffffffffffffffffffffffffff1614611b3b576040517f08c379a0000000000000000000000000000000000000000000000000000000008152600401611b3290614337565b60405180910390fd5b6001601260008373ffffffffffffffffffffffffffffffffffffffff1673ffffffffffffffffffffffffffffffffffffffff16815260200190815260200160002060006101000a81548160ff02191690831515021790555050565b6000600560008473ffffffffffffffffffffffffffffffffffffffff1673ffffffffffffffffffffffffffffffffffffffff16815260200190815260200160002060008373ffffffffffffffffffffffffffffffffffffffff1673ffffffffffffffffffffffffffffffffffffffff16815260200190815260200160002060009054906101000a900460ff16905092915050565b60606000611c37836110d5565b905060008167ffffffffffffffff811115611c5557611c546149a7565b5b604051908082528060200260200182016040528015611c835781602001602082028036833780820191505090505b50905060005b82811015611ccd57611c9b8582610c5d565b828281518110611cae57611cad614978565b5b6020026020010181815250508080611cc590614842565b915050611c89565b508092505050919050565b600047905090565b611ce8611ebe565b73ffffffffffffffffffffffffffffffffffffffff16611d066113ce565b73ffffffffffffffffffffffffffffffffffffffff1614611d5c576040517f08c379a0000000000000000000000000000000000000000000000000000000008152600401611d5390614337565b60405180910390fd5b600073ffffffffffffffffffffffffffffffffffffffff168173ffffffffffffffffffffffffffffffffffffffff161415611dcc576040517f08c379a0000000000000000000000000000000000000000000000000000000008152600401611dc390614157565b60405180910390fd5b611dd5816123f7565b50565b60007f780e9d63000000000000000000000000000000000000000000000000000000007bffffffffffffffffffffffffffffffffffffffffffffffffffffffff1916827bffffffffffffffffffffffffffffffffffffffffffffffffffffffff19161480611e4b5750611e4a826129e0565b5b9050919050565b60008073ffffffffffffffffffffffffffffffffffffffff166002600084815260200190815260200160002060009054906101000a900473ffffffffffffffffffffffffffffffffffffffff1673ffffffffffffffffffffffffffffffffffffffff1614159050919050565b600033905090565b816004600083815260200190815260200160002060006101000a81548173ffffffffffffffffffffffffffffffffffffffff021916908373ffffffffffffffffffffffffffffffffffffffff160217905550808273ffffffffffffffffffffffffffffffffffffffff16611f3983611023565b73ffffffffffffffffffffffffffffffffffffffff167f8c5be1e5ebec7d5bd14f71427d1e84f3dd0314c0f7b2291e5b200ac8c7c3b92560405160405180910390a45050565b6000611f8a82611e52565b611fc9576040517f08c379a0000000000000000000000000000000000000000000000000000000008152600401611fc090614257565b60405180910390fd5b6000611fd483611023565b90508073ffffffffffffffffffffffffffffffffffffffff168473ffffffffffffffffffffffffffffffffffffffff16148061204357508373ffffffffffffffffffffffffffffffffffffffff1661202b84610962565b73ffffffffffffffffffffffffffffffffffffffff16145b8061205457506120538185611b96565b5b91505092915050565b8273ffffffffffffffffffffffffffffffffffffffff1661207d82611023565b73ffffffffffffffffffffffffffffffffffffffff16146120d3576040517f08c379a00000000000000000000000000000000000000000000000000000000081526004016120ca90614177565b60405180910390fd5b600073ffffffffffffffffffffffffffffffffffffffff168273ffffffffffffffffffffffffffffffffffffffff161415612143576040517f08c379a000000000000000000000000000000000000000000000000000000000815260040161213a90614217565b60405180910390fd5b61214e838383612ac2565b612159600082611ec6565b6001600360008573ffffffffffffffffffffffffffffffffffffffff1673ffffffffffffffffffffffffffffffffffffffff16815260200190815260200160002060008282546121a991906146ad565b925050819055506001600360008473ffffffffffffffffffffffffffffffffffffffff1673ffffffffffffffffffffffffffffffffffffffff168152602001908152602001600020600082825461220091906145cc565b92505081905550816002600083815260200190815260200160002060006101000a81548173ffffffffffffffffffffffffffffffffffffffff021916908373ffffffffffffffffffffffffffffffffffffffff160217905550808273ffffffffffffffffffffffffffffffffffffffff168473ffffffffffffffffffffffffffffffffffffffff167fddf252ad1be2c89b69c2b068fc378daa952ba7f163c4a11628f55a4df523b3ef60405160405180910390a46122bf838383612ad2565b505050565b600081836122d29190614653565b905092915050565b60006122e582611023565b90506122f381600084612ac2565b6122fe600083611ec6565b6001600360008373ffffffffffffffffffffffffffffffffffffffff1673ffffffffffffffffffffffffffffffffffffffff168152602001908152602001600020600082825461234e91906146ad565b925050819055506002600083815260200190815260200160002060006101000a81549073ffffffffffffffffffffffffffffffffffffffff021916905581600073ffffffffffffffffffffffffffffffffffffffff168273ffffffffffffffffffffffffffffffffffffffff167fddf252ad1be2c89b69c2b068fc378daa952ba7f163c4a11628f55a4df523b3ef60405160405180910390a46123f381600084612ad2565b5050565b6000600a60009054906101000a900473ffffffffffffffffffffffffffffffffffffffff16905081600a60006101000a81548173ffffffffffffffffffffffffffffffffffffffff021916908373ffffffffffffffffffffffffffffffffffffffff1602179055508173ffffffffffffffffffffffffffffffffffffffff168173ffffffffffffffffffffffffffffffffffffffff167f8be0079c531659141344cd1fd0a4f28419497f9722a3daafe3b4186f6b6457e060405160405180910390a35050565b60008273ffffffffffffffffffffffffffffffffffffffff16826040516124e390613fa1565b60006040518083038185875af1925050503d8060008114612520576040519150601f19603f3d011682016040523d82523d6000602084013e612525565b606091505b5050905080612569576040517f08c379a0000000000000000000000000000000000000000000000000000000008152600401612560906141d7565b60405180910390fd5b505050565b8173ffffffffffffffffffffffffffffffffffffffff168373ffffffffffffffffffffffffffffffffffffffff1614156125dd576040517f08c379a00000000000000000000000000000000000000000000000000000000081526004016125d490614237565b60405180910390fd5b80600560008573ffffffffffffffffffffffffffffffffffffffff1673ffffffffffffffffffffffffffffffffffffffff16815260200190815260200160002060008473ffffffffffffffffffffffffffffffffffffffff1673ffffffffffffffffffffffffffffffffffffffff16815260200190815260200160002060006101000a81548160ff0219169083151502179055508173ffffffffffffffffffffffffffffffffffffffff168373ffffffffffffffffffffffffffffffffffffffff167f17307eab39ab6107e8899845ad3d59bd9653f200f220920489ca2b5937696c31836040516126ce919061405a565b60405180910390a3505050565b6126e684848461205d565b6126f284848484612ad7565b612731576040517f08c379a0000000000000000000000000000000000000000000000000000000008152600401612728906140f7565b60405180910390fd5b50505050565b606060148054612746906147df565b80601f0160208091040260200160405190810160405280929190818152602001828054612772906147df565b80156127bf5780601f10612794576101008083540402835291602001916127bf565b820191906000526020600020905b8154815290600101906020018083116127a257829003601f168201915b5050505050905090565b60606000821415612811576040518060400160405280600181526020017f30000000000000000000000000000000000000000000000000000000000000008152509050612925565b600082905060005b6000821461284357808061282c90614842565b915050600a8261283c9190614622565b9150612819565b60008167ffffffffffffffff81111561285f5761285e6149a7565b5b6040519080825280601f01601f1916602001820160405280156128915781602001600182028036833780820191505090505b5090505b6000851461291e576001826128aa91906146ad565b9150600a856128b9919061488b565b60306128c591906145cc565b60f81b8183815181106128db576128da614978565b5b60200101907effffffffffffffffffffffffffffffffffffffffffffffffffffffffffffff1916908160001a905350600a856129179190614622565b9450612895565b8093505050505b919050565b6000612936600b612c6e565b905090565b612945600b612c7c565b61294f8282612c92565b60016010600083815260200190815260200160002060006101000a81548160ff0219169083151502179055506011819080600181540180825580915050600190039060005260206000200160009091909190915055807f7bb0fa380533cae4211765254d6425f745df675e685f95f1cda5df62272beb85836040516129d49190613fd1565b60405180910390a25050565b60007f80ac58cd000000000000000000000000000000000000000000000000000000007bffffffffffffffffffffffffffffffffffffffffffffffffffffffff1916827bffffffffffffffffffffffffffffffffffffffffffffffffffffffff19161480612aab57507f5b5e139f000000000000000000000000000000000000000000000000000000007bffffffffffffffffffffffffffffffffffffffffffffffffffffffff1916827bffffffffffffffffffffffffffffffffffffffffffffffffffffffff1916145b80612abb5750612aba82612cb0565b5b9050919050565b612acd838383612d1a565b505050565b505050565b6000612af88473ffffffffffffffffffffffffffffffffffffffff16612db4565b15612c61578373ffffffffffffffffffffffffffffffffffffffff1663150b7a02612b21611ebe565b8786866040518563ffffffff1660e01b8152600401612b439493929190613fec565b602060405180830381600087803b158015612b5d57600080fd5b505af1925050508015612b8e57506040513d601f19601f82011682018060405250810190612b8b9190613916565b60015b612c11573d8060008114612bbe576040519150601f19603f3d011682016040523d82523d6000602084013e612bc3565b606091505b50600081511415612c09576040517f08c379a0000000000000000000000000000000000000000000000000000000008152600401612c00906140f7565b60405180910390fd5b805181602001fd5b63150b7a0260e01b7bffffffffffffffffffffffffffffffffffffffffffffffffffffffff1916817bffffffffffffffffffffffffffffffffffffffffffffffffffffffff191614915050612c66565b600190505b949350505050565b600081600001549050919050565b6001816000016000828254019250508190555050565b612cac828260405180602001604052806000815250612dd7565b5050565b60007f01ffc9a7000000000000000000000000000000000000000000000000000000007bffffffffffffffffffffffffffffffffffffffffffffffffffffffff1916827bffffffffffffffffffffffffffffffffffffffffffffffffffffffff1916149050919050565b612d25838383612e32565b612d2d6113ce565b73ffffffffffffffffffffffffffffffffffffffff16612d4b611ebe565b73ffffffffffffffffffffffffffffffffffffffff1614612daf57612d6e61100c565b15612dae576040517f08c379a0000000000000000000000000000000000000000000000000000000008152600401612da590614097565b60405180910390fd5b5b505050565b6000808273ffffffffffffffffffffffffffffffffffffffff163b119050919050565b612de18383612f46565b612dee6000848484612ad7565b612e2d576040517f08c379a0000000000000000000000000000000000000000000000000000000008152600401612e24906140f7565b60405180910390fd5b505050565b612e3d838383613120565b600073ffffffffffffffffffffffffffffffffffffffff168373ffffffffffffffffffffffffffffffffffffffff161415612e8057612e7b81613125565b612ebf565b8173ffffffffffffffffffffffffffffffffffffffff168373ffffffffffffffffffffffffffffffffffffffff1614612ebe57612ebd838261316e565b5b5b600073ffffffffffffffffffffffffffffffffffffffff168273ffffffffffffffffffffffffffffffffffffffff161415612f0257612efd816132db565b612f41565b8273ffffffffffffffffffffffffffffffffffffffff168273ffffffffffffffffffffffffffffffffffffffff1614612f4057612f3f82826133ac565b5b5b505050565b600073ffffffffffffffffffffffffffffffffffffffff168273ffffffffffffffffffffffffffffffffffffffff161415612fb6576040517f08c379a0000000000000000000000000000000000000000000000000000000008152600401612fad906142f7565b60405180910390fd5b612fbf81611e52565b15612fff576040517f08c379a0000000000000000000000000000000000000000000000000000000008152600401612ff6906141b7565b60405180910390fd5b61300b60008383612ac2565b6001600360008473ffffffffffffffffffffffffffffffffffffffff1673ffffffffffffffffffffffffffffffffffffffff168152602001908152602001600020600082825461305b91906145cc565b92505081905550816002600083815260200190815260200160002060006101000a81548173ffffffffffffffffffffffffffffffffffffffff021916908373ffffffffffffffffffffffffffffffffffffffff160217905550808273ffffffffffffffffffffffffffffffffffffffff16600073ffffffffffffffffffffffffffffffffffffffff167fddf252ad1be2c89b69c2b068fc378daa952ba7f163c4a11628f55a4df523b3ef60405160405180910390a461311c60008383612ad2565b5050565b505050565b6008805490506009600083815260200190815260200160002081905550600881908060018154018082558091505060019003906000526020600020016000909190919091505550565b6000600161317b846110d5565b61318591906146ad565b905060006007600084815260200190815260200160002054905081811461326a576000600660008673ffffffffffffffffffffffffffffffffffffffff1673ffffffffffffffffffffffffffffffffffffffff168152602001908152602001600020600084815260200190815260200160002054905080600660008773ffffffffffffffffffffffffffffffffffffffff1673ffffffffffffffffffffffffffffffffffffffff168152602001908152602001600020600084815260200190815260200160002081905550816007600083815260200190815260200160002081905550505b6007600084815260200190815260200160002060009055600660008573ffffffffffffffffffffffffffffffffffffffff1673ffffffffffffffffffffffffffffffffffffffff16815260200190815260200160002060008381526020019081526020016000206000905550505050565b600060016008805490506132ef91906146ad565b905060006009600084815260200190815260200160002054905060006008838154811061331f5761331e614978565b5b90600052602060002001549050806008838154811061334157613340614978565b5b9060005260206000200181905550816009600083815260200190815260200160002081905550600960008581526020019081526020016000206000905560088054806133905761338f614949565b5b6001900381819060005260206000200160009055905550505050565b60006133b7836110d5565b905081600660008573ffffffffffffffffffffffffffffffffffffffff1673ffffffffffffffffffffffffffffffffffffffff168152602001908152602001600020600083815260200190815260200160002081905550806007600084815260200190815260200160002081905550505050565b828054613437906147df565b90600052602060002090601f01602090048101928261345957600085556134a0565b82601f1061347257805160ff19168380011785556134a0565b828001600101855582156134a0579182015b8281111561349f578251825591602001919060010190613484565b5b5090506134ad91906134b1565b5090565b5b808211156134ca5760008160009055506001016134b2565b5090565b60006134e16134dc846144b7565b614492565b90508083825260208201905082856020860282011115613504576135036149db565b5b60005b85811015613534578161351a88826136b5565b845260208401935060208301925050600181019050613507565b5050509392505050565b600061355161354c846144e3565b614492565b90508281526020810184848401111561356d5761356c6149e0565b5b61357884828561479d565b509392505050565b600061359361358e84614514565b614492565b9050828152602081018484840111156135af576135ae6149e0565b5b6135ba84828561479d565b509392505050565b6000813590506135d181615264565b92915050565b6000813590506135e68161527b565b92915050565b600082601f830112613601576136006149d6565b5b81356136118482602086016134ce565b91505092915050565b60008135905061362981615292565b92915050565b60008135905061363e816152a9565b92915050565b600081519050613653816152a9565b92915050565b600082601f83011261366e5761366d6149d6565b5b813561367e84826020860161353e565b91505092915050565b600082601f83011261369c5761369b6149d6565b5b81356136ac848260208601613580565b91505092915050565b6000813590506136c4816152c0565b92915050565b6000602082840312156136e0576136df6149ea565b5b60006136ee848285016135c2565b91505092915050565b6000806040838503121561370e5761370d6149ea565b5b600061371c858286016135d7565b925050602083013567ffffffffffffffff81111561373d5761373c6149e5565b5b613749858286016135ec565b9150509250929050565b6000806040838503121561376a576137696149ea565b5b6000613778858286016135c2565b9250506020613789858286016135c2565b9150509250929050565b6000806000606084860312156137ac576137ab6149ea565b5b60006137ba868287016135c2565b93505060206137cb868287016135c2565b92505060406137dc868287016136b5565b9150509250925092565b60008060008060808587031215613800576137ff6149ea565b5b600061380e878288016135c2565b945050602061381f878288016135c2565b9350506040613830878288016136b5565b925050606085013567ffffffffffffffff811115613851576138506149e5565b5b61385d87828801613659565b91505092959194509250565b600080604083850312156138805761387f6149ea565b5b600061388e858286016135c2565b925050602061389f8582860161361a565b9150509250929050565b600080604083850312156138c0576138bf6149ea565b5b60006138ce858286016135c2565b92505060206138df858286016136b5565b9150509250929050565b6000602082840312156138ff576138fe6149ea565b5b600061390d8482850161362f565b91505092915050565b60006020828403121561392c5761392b6149ea565b5b600061393a84828501613644565b91505092915050565b600060208284031215613959576139586149ea565b5b600082013567ffffffffffffffff811115613977576139766149e5565b5b61398384828501613687565b91505092915050565b6000602082840312156139a2576139a16149ea565b5b60006139b0848285016136b5565b91505092915050565b60006139c58383613f5f565b60208301905092915050565b6139da81614767565b82525050565b6139e9816146e1565b82525050565b60006139fa82614555565b613a048185614583565b9350613a0f83614545565b8060005b83811015613a40578151613a2788826139b9565b9750613a3283614576565b925050600181019050613a13565b5085935050505092915050565b613a5681614705565b82525050565b6000613a6782614560565b613a718185614594565b9350613a818185602086016147ac565b613a8a816149ef565b840191505092915050565b6000613aa08261456b565b613aaa81856145b0565b9350613aba8185602086016147ac565b613ac3816149ef565b840191505092915050565b6000613ad98261456b565b613ae381856145c1565b9350613af38185602086016147ac565b80840191505092915050565b6000613b0c602b836145b0565b9150613b1782614a00565b604082019050919050565b6000613b2f602c836145b0565b9150613b3a82614a4f565b604082019050919050565b6000613b52602b836145b0565b9150613b5d82614a9e565b604082019050919050565b6000613b756032836145b0565b9150613b8082614aed565b604082019050919050565b6000613b986010836145b0565b9150613ba382614b3c565b602082019050919050565b6000613bbb6032836145b0565b9150613bc682614b65565b604082019050919050565b6000613bde6026836145b0565b9150613be982614bb4565b604082019050919050565b6000613c016025836145b0565b9150613c0c82614c03565b604082019050919050565b6000613c246032836145b0565b9150613c2f82614c52565b604082019050919050565b6000613c47601c836145b0565b9150613c5282614ca1565b602082019050919050565b6000613c6a601a836145b0565b9150613c7582614cca565b602082019050919050565b6000613c8d603a836145b0565b9150613c9882614cf3565b604082019050919050565b6000613cb06024836145b0565b9150613cbb82614d42565b604082019050919050565b6000613cd36019836145b0565b9150613cde82614d91565b602082019050919050565b6000613cf6602c836145b0565b9150613d0182614dba565b604082019050919050565b6000613d196038836145b0565b9150613d2482614e09565b604082019050919050565b6000613d3c602a836145b0565b9150613d4782614e58565b604082019050919050565b6000613d5f6029836145b0565b9150613d6a82614ea7565b604082019050919050565b6000613d826039836145b0565b9150613d8d82614ef6565b604082019050919050565b6000613da56020836145b0565b9150613db082614f45565b602082019050919050565b6000613dc8602c836145b0565b9150613dd382614f6e565b604082019050919050565b6000613deb6020836145b0565b9150613df682614fbd565b602082019050919050565b6000613e0e602f836145b0565b9150613e1982614fe6565b604082019050919050565b6000613e31603a836145b0565b9150613e3c82615035565b604082019050919050565b6000613e546020836145b0565b9150613e5f82615084565b602082019050919050565b6000613e776021836145b0565b9150613e82826150ad565b604082019050919050565b6000613e9a6000836145a5565b9150613ea5826150fc565b600082019050919050565b6000613ebd602f836145b0565b9150613ec8826150ff565b604082019050919050565b6000613ee06031836145b0565b9150613eeb8261514e565b604082019050919050565b6000613f03602c836145b0565b9150613f0e8261519d565b604082019050919050565b6000613f266030836145b0565b9150613f31826151ec565b604082019050919050565b6000613f49600f836145b0565b9150613f548261523b565b602082019050919050565b613f688161475d565b82525050565b613f778161475d565b82525050565b6000613f898285613ace565b9150613f958284613ace565b91508190509392505050565b6000613fac82613e8d565b9150819050919050565b6000602082019050613fcb60008301846139e0565b92915050565b6000602082019050613fe660008301846139d1565b92915050565b600060808201905061400160008301876139e0565b61400e60208301866139e0565b61401b6040830185613f6e565b818103606083015261402d8184613a5c565b905095945050505050565b6000602082019050818103600083015261405281846139ef565b905092915050565b600060208201905061406f6000830184613a4d565b92915050565b6000602082019050818103600083015261408f8184613a95565b905092915050565b600060208201905081810360008301526140b081613aff565b9050919050565b600060208201905081810360008301526140d081613b22565b9050919050565b600060208201905081810360008301526140f081613b45565b9050919050565b6000602082019050818103600083015261411081613b68565b9050919050565b6000602082019050818103600083015261413081613b8b565b9050919050565b6000602082019050818103600083015261415081613bae565b9050919050565b6000602082019050818103600083015261417081613bd1565b9050919050565b6000602082019050818103600083015261419081613bf4565b9050919050565b600060208201905081810360008301526141b081613c17565b9050919050565b600060208201905081810360008301526141d081613c3a565b9050919050565b600060208201905081810360008301526141f081613c5d565b9050919050565b6000602082019050818103600083015261421081613c80565b9050919050565b6000602082019050818103600083015261423081613ca3565b9050919050565b6000602082019050818103600083015261425081613cc6565b9050919050565b6000602082019050818103600083015261427081613ce9565b9050919050565b6000602082019050818103600083015261429081613d0c565b9050919050565b600060208201905081810360008301526142b081613d2f565b9050919050565b600060208201905081810360008301526142d081613d52565b9050919050565b600060208201905081810360008301526142f081613d75565b9050919050565b6000602082019050818103600083015261431081613d98565b9050919050565b6000602082019050818103600083015261433081613dbb565b9050919050565b6000602082019050818103600083015261435081613dde565b9050919050565b6000602082019050818103600083015261437081613e01565b9050919050565b6000602082019050818103600083015261439081613e24565b9050919050565b600060208201905081810360008301526143b081613e47565b9050919050565b600060208201905081810360008301526143d081613e6a565b9050919050565b600060208201905081810360008301526143f081613eb0565b9050919050565b6000602082019050818103600083015261441081613ed3565b9050919050565b6000602082019050818103600083015261443081613ef6565b9050919050565b6000602082019050818103600083015261445081613f19565b9050919050565b6000602082019050818103600083015261447081613f3c565b9050919050565b600060208201905061448c6000830184613f6e565b92915050565b600061449c6144ad565b90506144a88282614811565b919050565b6000604051905090565b600067ffffffffffffffff8211156144d2576144d16149a7565b5b602082029050602081019050919050565b600067ffffffffffffffff8211156144fe576144fd6149a7565b5b614507826149ef565b9050602081019050919050565b600067ffffffffffffffff82111561452f5761452e6149a7565b5b614538826149ef565b9050602081019050919050565b6000819050602082019050919050565b600081519050919050565b600081519050919050565b600081519050919050565b6000602082019050919050565b600082825260208201905092915050565b600082825260208201905092915050565b600081905092915050565b600082825260208201905092915050565b600081905092915050565b60006145d78261475d565b91506145e28361475d565b9250827fffffffffffffffffffffffffffffffffffffffffffffffffffffffffffffffff03821115614617576146166148bc565b5b828201905092915050565b600061462d8261475d565b91506146388361475d565b925082614648576146476148eb565b5b828204905092915050565b600061465e8261475d565b91506146698361475d565b9250817fffffffffffffffffffffffffffffffffffffffffffffffffffffffffffffffff04831182151516156146a2576146a16148bc565b5b828202905092915050565b60006146b88261475d565b91506146c38361475d565b9250828210156146d6576146d56148bc565b5b828203905092915050565b60006146ec8261473d565b9050919050565b60006146fe8261473d565b9050919050565b60008115159050919050565b60007fffffffff0000000000000000000000000000000000000000000000000000000082169050919050565b600073ffffffffffffffffffffffffffffffffffffffff82169050919050565b6000819050919050565b600061477282614779565b9050919050565b60006147848261478b565b9050919050565b60006147968261473d565b9050919050565b82818337600083830152505050565b60005b838110156147ca5780820151818401526020810190506147af565b838111156147d9576000848401525b50505050565b600060028204905060018216806147f757607f821691505b6020821081141561480b5761480a61491a565b5b50919050565b61481a826149ef565b810181811067ffffffffffffffff82111715614839576148386149a7565b5b80604052505050565b600061484d8261475d565b91507fffffffffffffffffffffffffffffffffffffffffffffffffffffffffffffffff8214156148805761487f6148bc565b5b600182019050919050565b60006148968261475d565b91506148a18361475d565b9250826148b1576148b06148eb565b5b828206905092915050565b7f4e487b7100000000000000000000000000000000000000000000000000000000600052601160045260246000fd5b7f4e487b7100000000000000000000000000000000000000000000000000000000600052601260045260246000fd5b7f4e487b7100000000000000000000000000000000000000000000000000000000600052602260045260246000fd5b7f4e487b7100000000000000000000000000000000000000000000000000000000600052603160045260246000fd5b7f4e487b7100000000000000000000000000000000000000000000000000000000600052603260045260246000fd5b7f4e487b7100000000000000000000000000000000000000000000000000000000600052604160045260246000fd5b600080fd5b600080fd5b600080fd5b600080fd5b600080fd5b6000601f19601f8301169050919050565b7f4552433732315061757361626c653a20746f6b656e207472616e73666572207760008201527f68696c6520706175736564000000000000000000000000000000000000000000602082015250565b7f50524553414c453a204f6e6c79207265676973746572656420637573746f6d6560008201527f72732063616e206d696e74210000000000000000000000000000000000000000602082015250565b7f455243373231456e756d657261626c653a206f776e657220696e646578206f7560008201527f74206f6620626f756e6473000000000000000000000000000000000000000000602082015250565b7f4552433732313a207472616e7366657220746f206e6f6e20455243373231526560008201527f63656976657220696d706c656d656e7465720000000000000000000000000000602082015250565b7f5041555341424c453a2050617573656400000000000000000000000000000000600082015250565b7f4d494e543a2043757272656e7420636f756e742065786365656473206d61786960008201527f6d756d20656c656d656e7420636f756e742e0000000000000000000000000000602082015250565b7f4f776e61626c653a206e6577206f776e657220697320746865207a65726f206160008201527f6464726573730000000000000000000000000000000000000000000000000000602082015250565b7f4552433732313a207472616e736665722066726f6d20696e636f72726563742060008201527f6f776e6572000000000000000000000000000000000000000000000000000000602082015250565b7f4d494e543a20506c6561736520676f20746f20746865204f70656e736561207460008201527f6f20627579204e6970706c6556657273652e0000000000000000000000000000602082015250565b7f4552433732313a20746f6b656e20616c7265616479206d696e74656400000000600082015250565b7f57495448445241573a205472616e73666572206661696c65642e000000000000600082015250565b7f53414c45533a20506c656173652077616974206120626967206c6f6e6765722060008201527f6265666f726520627579696e67205961616b2054686169203b29000000000000602082015250565b7f4552433732313a207472616e7366657220746f20746865207a65726f2061646460008201527f7265737300000000000000000000000000000000000000000000000000000000602082015250565b7f4552433732313a20617070726f766520746f2063616c6c657200000000000000600082015250565b7f4552433732313a206f70657261746f7220717565727920666f72206e6f6e657860008201527f697374656e7420746f6b656e0000000000000000000000000000000000000000602082015250565b7f4552433732313a20617070726f76652063616c6c6572206973206e6f74206f7760008201527f6e6572206e6f7220617070726f76656420666f7220616c6c0000000000000000602082015250565b7f4552433732313a2062616c616e636520717565727920666f7220746865207a6560008201527f726f206164647265737300000000000000000000000000000000000000000000602082015250565b7f4552433732313a206f776e657220717565727920666f72206e6f6e657869737460008201527f656e7420746f6b656e0000000000000000000000000000000000000000000000602082015250565b7f4d494e543a2043757272656e742076616c75652069732062656c6f772074686560008201527f2073616c6573207072696365206f66205961616b205468616900000000000000602082015250565b7f4552433732313a206d696e7420746f20746865207a65726f2061646472657373600082015250565b7f4552433732313a20617070726f76656420717565727920666f72206e6f6e657860008201527f697374656e7420746f6b656e0000000000000000000000000000000000000000602082015250565b7f4f776e61626c653a2063616c6c6572206973206e6f7420746865206f776e6572600082015250565b7f4552433732314d657461646174613a2055524920717565727920666f72206e6f60008201527f6e6578697374656e7420746f6b656e0000000000000000000000000000000000602082015250565b7f4d494e543a2054686f73652069647320616c726561647920686176652062656560008201527f6e207573656420666f72206f7468657220637573746f6d657273000000000000602082015250565b7f57495448445241573a204e6f2062616c616e636520696e20636f6e7472616374600082015250565b7f4552433732313a20617070726f76616c20746f2063757272656e74206f776e6560008201527f7200000000000000000000000000000000000000000000000000000000000000602082015250565b50565b7f4d494e543a2043757272656e7420636f756e742065786365656473206d61786960008201527f6d756d206d696e7420636f756e742e0000000000000000000000000000000000602082015250565b7f4552433732313a207472616e736665722063616c6c6572206973206e6f74206f60008201527f776e6572206e6f7220617070726f766564000000000000000000000000000000602082015250565b7f455243373231456e756d657261626c653a20676c6f62616c20696e646578206f60008201527f7574206f6620626f756e64730000000000000000000000000000000000000000602082015250565b7f4552433732314275726e61626c653a2063616c6c6572206973206e6f74206f7760008201527f6e6572206e6f7220617070726f76656400000000000000000000000000000000602082015250565b7f53414c45533a2053616c6520656e640000000000000000000000000000000000600082015250565b61526d816146e1565b811461527857600080fd5b50565b615284816146f3565b811461528f57600080fd5b50565b61529b81614705565b81146152a657600080fd5b50565b6152b281614711565b81146152bd57600080fd5b50565b6152c98161475d565b81146152d457600080fd5b5056fea2646970667358221220a00c6a05e272f5498901fd230b954100db383ffe9e273a71304a1d312c83b07164736f6c63430008070033",
  "immutableReferences": {},
  "source": "// SPDX-License-Identifier: MIT\n\npragma solidity ^0.8.7;\n\nimport \"@openzeppelin/contracts/token/ERC721/ERC721.sol\";\nimport \"@openzeppelin/contracts/token/ERC721/extensions/ERC721Enumerable.sol\";\nimport \"@openzeppelin/contracts/token/ERC721/extensions/ERC721Burnable.sol\";\nimport \"@openzeppelin/contracts/access/Ownable.sol\";\nimport \"@openzeppelin/contracts/utils/math/SafeMath.sol\";\nimport \"@openzeppelin/contracts/utils/Counters.sol\";\nimport \"./ERC721Pausable.sol\";\n\ncontract Nippleverse is ERC721Enumerable, Ownable, ERC721Burnable, ERC721Pausable {\n\n    using SafeMath for uint256;\n    using Counters for Counters.Counter;\n\n    Counters.Counter private _tokenIdTracker;\n\n    bool public SALE_OPEN = false;\n\n    uint256 private constant PRICE = 69 * 10**15; // 0.069ETH Per Yaak\n    uint256 private constant PRICE_PRESALE = 5 * 10**16; // 0.05ETH Per Yaak\n    uint256 private constant PRICE_PREMINT = 0; // Free Per Yaak\n\n    uint256 private constant MAX_ELEMENTS = 3333; // 3333 Nipples for Entire Collection.\n    uint256 private constant MAX_ELEMENTS_PRESALE = 333; // 333 Nipples for Pre Sale.\n    uint256 private constant MAX_ELEMENTS_PREMINT = 30; // 30 Nipples for GiveAway.\n\n    uint256 private constant MAX_MINT = 20; // Upper Limit per Mint is 20\n    uint256 private constant MAX_MINT_PRESALE = 5; // Upper Limit per Mint is 5\n    uint256 private constant MAX_MINT_PREMINT = 28; // Upper Limit per Mint is 28\n\n    uint256 private _price;\n    uint256 private _maxElements;\n    uint256 private _maxMint;\n\n    mapping(uint256 => bool) private _isOccupiedId;\n    uint256[] private _occupiedList;\n\n    mapping(address => bool) public _whitelist;\n    bool private _isPresale;\n\n    string private baseTokenURI;\n\n    event NippleverseCreated(address to, uint256 indexed id);\n\n    modifier saleIsOpen {\n        if (_msgSender() != owner()) {\n            require(SALE_OPEN == true, \"SALES: Please wait a big longer before buying Yaak Thai ;)\");\n        }\n        require(_totalSupply() <= MAX_ELEMENTS, \"SALES: Sale end\");\n\n        if (_msgSender() != owner()) {\n            require(!paused(), \"PAUSABLE: Paused\");\n        }\n        _;\n    }\n\n    constructor (string memory baseURI) ERC721(\"Nippleverse\", \"NIP\") {\n        setBaseURI(baseURI);\n\n        _price = PRICE_PREMINT;\n        _maxElements = MAX_ELEMENTS_PREMINT;\n        _maxMint = MAX_MINT_PREMINT;\n    }\n\n    function mint(address payable _to, uint256[] memory _ids) public payable saleIsOpen {\n        uint256 total = _totalSupply();\n\n        if (_isPresale == true) {\n            require(_whitelist[_to] == true, \"PRESALE: Only registered customers can mint!\");\n        }\n\n        require(total + _ids.length <= _maxElements, \"MINT: Current count exceeds maximum element count.\");\n        require(total <= _maxElements, \"MINT: Please go to the Opensea to buy NippleVerse.\");\n        require(_ids.length <= _maxMint, \"MINT: Current count exceeds maximum mint count.\");\n\n        if (_to != owner()) {\n            require(msg.value >= price(_ids.length), \"MINT: Current value is below the sales price of Yaak Thai\");\n        }\n\n        for (uint256 i = 0; i < _ids.length; i++) {\n            require(_isOccupiedId[_ids[i]] == false, \"MINT: Those ids already have been used for other customers\");\n        }\n\n        for (uint256 i = 0; i < _ids.length; i++) {\n            _mintAnElement(_to, _ids[i]);\n        }\n    }\n\n    function _mintAnElement(address payable _to, uint256 _id) private {\n        _tokenIdTracker.increment();\n        _safeMint(_to, _id);\n        _isOccupiedId[_id] = true;\n        _occupiedList.push(_id);\n\n        emit NippleverseCreated(_to, _id);\n    }\n\n    function startPreSale() public onlyOwner {\n        _isPresale = true;\n\n        SALE_OPEN = true;\n\n        _price = PRICE_PRESALE;\n        _maxElements = MAX_ELEMENTS_PRESALE + MAX_ELEMENTS_PREMINT;\n        _maxMint = MAX_MINT_PRESALE;\n    }\n\n    function startPublicSale() public onlyOwner {\n        _isPresale = false;\n\n        SALE_OPEN = true;\n\n        _price = PRICE;\n        _maxElements = MAX_ELEMENTS;\n        _maxMint = MAX_MINT;\n    }\n\n    function flipSaleState() public onlyOwner {\n        SALE_OPEN = !SALE_OPEN;\n    }\n\n    function addToWhitelist(address attender) public onlyOwner {\n        _whitelist[attender] = true;\n    }\n\n    function removeFromWhitelist(address attender) public onlyOwner {\n        _whitelist[attender] = false;\n    }\n\n    function setBaseURI(string memory baseURI) public onlyOwner {\n        baseTokenURI = baseURI;\n    }\n\n    function _baseURI() internal view virtual override returns (string memory) {\n        return baseTokenURI;\n    }\n\n    function price(uint256 _count) public view returns (uint256) {\n        return _price.mul(_count);\n    }\n\n    function _totalSupply() internal view returns (uint) {\n        return _tokenIdTracker.current();\n    }\n\n    function occupiedList() public view returns (uint256[] memory) {\n        return _occupiedList;\n    }\n\n    function maxMint() public view returns (uint256) {\n        return _maxMint;\n    }\n\n    function maxSales() public view returns (uint256) {\n        return _maxElements;\n    }\n\n    function maxSupply() public pure returns (uint256) {\n        return MAX_ELEMENTS;\n    }\n\n    function raised() public view returns (uint256) {\n        return address(this).balance;\n    }\n\n    function getTokenIdsOfWallet(address _owner) external view returns (uint256[] memory) {\n        uint256 tokenCount = balanceOf(_owner);\n\n        uint256[] memory tokensId = new uint256[](tokenCount);\n\n        for (uint256 i = 0; i < tokenCount; i++) {\n            tokensId[i] = tokenOfOwnerByIndex(_owner, i);\n        }\n\n        return tokensId;\n    }\n\n    function withdrawAll() public payable onlyOwner {\n        uint256 balance = address(this).balance;\n        require(balance > 0, \"WITHDRAW: No balance in contract\");\n\n        _widthdraw(owner(), address(this).balance);\n    }\n\n    function _widthdraw(address _address, uint256 _amount) private {\n        (bool success, ) = _address.call{value: _amount}(\"\");\n        require(success, \"WITHDRAW: Transfer failed.\");\n    }\n\n    function _beforeTokenTransfer(\n        address from,\n        address to,\n        uint256 tokenId\n    ) internal virtual override(ERC721, ERC721Enumerable, ERC721Pausable) {\n        super._beforeTokenTransfer(from, to, tokenId);\n    }\n\n    function supportsInterface(bytes4 interfaceId) public view virtual override(ERC721, ERC721Enumerable) returns (bool) {\n        return super.supportsInterface(interfaceId);\n    }\n}",
  "sourcePath": "/Users/baziovip/Desktop/yaakthai/nippleverse/contracts/NippleVerse.sol",
  "compiler": {
    "name": "solc",
    "version": "0.8.7+commit.e28d00a7.Emscripten.clang"
  },
  "schemaVersion": "3.4.7",
  "updatedAt": "2022-04-11T19:00:21.050Z",
  "devdoc": {
    "kind": "dev",
    "methods": {
      "approve(address,uint256)": {
        "details": "See {IERC721-approve}."
      },
      "balanceOf(address)": {
        "details": "See {IERC721-balanceOf}."
      },
      "burn(uint256)": {
        "details": "Burns `tokenId`. See {ERC721-_burn}. Requirements: - The caller must own `tokenId` or be an approved operator."
      },
      "getApproved(uint256)": {
        "details": "See {IERC721-getApproved}."
      },
      "isApprovedForAll(address,address)": {
        "details": "See {IERC721-isApprovedForAll}."
      },
      "name()": {
        "details": "See {IERC721Metadata-name}."
      },
      "owner()": {
        "details": "Returns the address of the current owner."
      },
      "ownerOf(uint256)": {
        "details": "See {IERC721-ownerOf}."
      },
      "paused()": {
        "details": "Returns true if the contract is paused, and false otherwise."
      },
      "renounceOwnership()": {
        "details": "Leaves the contract without owner. It will not be possible to call `onlyOwner` functions anymore. Can only be called by the current owner. NOTE: Renouncing ownership will leave the contract without an owner, thereby removing any functionality that is only available to the owner."
      },
      "safeTransferFrom(address,address,uint256)": {
        "details": "See {IERC721-safeTransferFrom}."
      },
      "safeTransferFrom(address,address,uint256,bytes)": {
        "details": "See {IERC721-safeTransferFrom}."
      },
      "setApprovalForAll(address,bool)": {
        "details": "See {IERC721-setApprovalForAll}."
      },
      "symbol()": {
        "details": "See {IERC721Metadata-symbol}."
      },
      "tokenByIndex(uint256)": {
        "details": "See {IERC721Enumerable-tokenByIndex}."
      },
      "tokenOfOwnerByIndex(address,uint256)": {
        "details": "See {IERC721Enumerable-tokenOfOwnerByIndex}."
      },
      "tokenURI(uint256)": {
        "details": "See {IERC721Metadata-tokenURI}."
      },
      "totalSupply()": {
        "details": "See {IERC721Enumerable-totalSupply}."
      },
      "transferFrom(address,address,uint256)": {
        "details": "See {IERC721-transferFrom}."
      },
      "transferOwnership(address)": {
        "details": "Transfers ownership of the contract to a new account (`newOwner`). Can only be called by the current owner."
      }
    },
    "version": 1
  },
  "userdoc": {
    "kind": "user",
    "methods": {},
    "version": 1
  }
}